:1000000000308A0044280000FF00030E8301A10095
:100010000A08A0008A010408A2007708A300780853
:10002000A4007908A5007A08A600831383120B1E8A
:100030001B288B182C28220884002308F70024088A
:10004000F8002508F9002608FA0020088A00210E89
:100050008300FF0E7F0E09008A110A129C282C30A3
:10006000840083130008031943280130F800F701C6
:10007000F70B3828F80B37284A30F700F70B3E28E3
:100080004128800B35280800840183131F30830525
:1000900083161F149F141F159F1107309C00FF30FB
:1000A0008312A8008316011383128B10D0308B04A7
:1000B0002811280883168700831207158316081451
:1000C000831208189A28831688148312881C7B28A8
:1000D000281028088316870083120714A810280800
:1000E0008316870083128714281128088316870037
:1000F00083120711632828102808831687008312AB
:100100000710A81028088316870083128710A811EB
:10011000280883168700831287150830AB00FA3051
:10012000AC002F20AB0B8F28A8112808831687005E
:100130008312871158286300281028088316870027
:1001400083120710A81028088316870083128710CF
:10015000281128088316870083120711A811280880
:1001600083168700831287112812280883168700B8
:10017000831207168316081583120819BA28281245
:100180002808831687008312071244208B108A11D7
:040190000A121B280C
:02400E00313F40
:00000001FF
;PIC16F877A
;CRC=BC36  CREATED="05-jul-18 00:46"
