:1000000000308A00192800002C3084008313000877
:10001000031918280130F800F701F70B0D28F80B29
:100020000C284A30F700F70B13281628800B0A28F3
:100030000800840183131F30830583161F149F1447
:100040001F159F1107309C00FF308312A000FF3066
:10005000831687008312A000831681138312A201E6
:100060006430A10020142008831687008312A301A6
:100070000718A30A0030A0142008831687008312F3
:10008000A5018718A50A00302015200883168700CF
:100090008312A7010719A70A0030A01520088316AC
:1000A00087008312A9018719A90A0030290B102A99
:1000B000AA08031D102AA308031DD328A408031DA2
:1000C000D328831606108312061083168610831217
:1000D0008610831606118312061183168611831269
:1000E00086112208AB00AB0AAB0303197B28FF3053
:1000F000AC00042074282108AC00042083160610EC
:10010000831206142208AB00AB0AAB0303198C2838
:10011000FF30AC00042085282108AC0004208316A1
:100120000610831206108316061183120615220884
:10013000AB00AB0AAB030319A128FF30AC000420CD
:100140009A282108AC000420831606118312061198
:1001500083168611831286152208AB00AB0AAB0307
:100160000319B628FF30AC000420AF282108AC00EA
:10017000042083168611831286118316861083123B
:1001800086142208AB00AB0AAB030319CB28FF305F
:10019000AC000420C4282108AC000420831686107B
:1001A000831286100F2AA508031D3B29A608031DEC
:1001B0003B292208AB00AB0AAB030319E328FF304D
:1001C000AC000420DC282108AC0004208316861132
:1001D000831286152208AB00AB0AAB030319F4287F
:1001E000FF30AC000420ED282108AC000420831669
:1001F00086118312861183168610831286142208B4
:10020000AB00AB0AAB0303190929FF30AC00042093
:1002100002292108AC000420831686108312861060
:1002200083160610831206142208AB00AB0AAB0338
:1002300003191E29FF30AC00042017292108AC0047
:1002400004208316061083120610831606118312EB
:1002500006152208AB00AB0AAB0303193329FF30A4
:10026000AC0004202C292108AC00042083160611C0
:10027000831206110F2AA708031D9E29A808031D33
:100280009E292208AB00AB0AAB0303194B29FF30B0
:10029000AC00042044292108AC0004208316061079
:1002A0008312061483168611831286152208AB006A
:1002B000AB0AAB0303196029FF30AC0004205929B5
:1002C0002108AC0004208316061083120610831642
:1002D0008611831286118316861083128614831664
:1002E0000611831206152208AB00AB0AAB030319F3
:1002F0007D29FF30AC00042076292108AC000420C1
:100300008316861083128610831606118312061137
:1003100083168611831286152208AB00AB0AAB0345
:1003200003199629FF30AC0004208F292108AC0066
:10033000042083168611831286110F2A8316061055
:1003400083120610831686108312861083160611F8
:100350008312061183168611831286112208AB00C0
:10036000AB0AAB030319B829FF30AC000420B12954
:100370002108AC00042083160610831206142208FC
:10038000AB00AB0AAB030319C929FF30AC00042052
:10039000C2292108AC00042083160610831206101F
:1003A00083168610831286142208AB00AB0AAB03B7
:1003B0000319DE29FF30AC000420D7292108AC0046
:1003C000042083168610831286108316061183126A
:1003D00006152208AB00AB0AAB030319F329FF3063
:1003E000AC000420EC292108AC000420831606117F
:1003F0008312061183168611831286152208AB001C
:10040000AB0AAB030319082AFF30AC000420012A11
:100410002108AC0004208316861183128611E42B78
:10042000A908031DE42BAA08031DE42BA308031D40
:100430008E2AA408031D8E2A831606108312061026
:1004400083168610831286108316061183120611F6
:1004500083168611831286112208AB00AB0AAB0308
:100460000319362AFF30AC0004202F2A2108AC00E3
:10047000042083168610831286142208AB00AB0A70
:10048000AB030319472AFF30AC000420402A21089F
:10049000AC00042083168610831286108316861102
:1004A000831286152208AB00AB0AAB0303195C2A42
:1004B000FF30AC000420552A2108AC00042083162C
:1004C00086118312861183160611831206152208DF
:1004D000AB00AB0AAB030319712AFF30AC00042058
:1004E0006A2A2108AC000420831606118312061123
:1004F00083160610831206142208AB00AB0AAB0366
:100500000319862AFF30AC0004207F2A2108AC00A2
:1005100004208316061083120610E42BA508031D81
:10052000F62AA608031DF62A2208AB00AB0AAB0385
:1005300003199E2AFF30AC000420972A2108AC0042
:10054000042083160611831206152208AB00AB0A9D
:10055000AB030319AF2AFF30AC000420A82A2108FE
:10056000AC000420831606118312061183160610B0
:10057000831206142208AB00AB0AAB030319C42A8A
:10058000FF30AC000420BD2A2108AC0004208316F3
:100590000610831206108316861083128614220812
:1005A000AB00AB0AAB030319D92AFF30AC0004201F
:1005B000D22A2108AC0004208316861083128610EC
:1005C00083168611831286152208AB00AB0AAB0393
:1005D0000319EE2AFF30AC000420E72A2108AC0002
:1005E00004208316861183128611E42BA708031DAD
:1005F000732BA808031D732B2208AB00AB0AAB03B7
:100600000319062BFF30AC000420FF2A2108AC00A0
:10061000042083168611831286152208AB00AB0ACC
:10062000AB030319172BFF30AC000420102B21085B
:10063000AC00042083168611831286112208AB00B9
:10064000AB0AAB030319282BFF30AC000420212B8D
:100650002108AC00042083168610831286148316AA
:100660000611831206152208AB00AB0AAB0303196F
:100670003D2BFF30AC000420362B2108AC000420B9
:1006800083168610831286108316061183120611B4
:10069000831606108312061483168611831286159C
:1006A0002208AB00AB0AAB0303195A2BFF30AC0096
:1006B0000420532B2108AC0004208316061083125B
:1006C000061083168611831286112208AB00AB0A2E
:1006D000AB0303196F2BFF30AC000420682B2108FB
:1006E000AC000420E42B8316061083120610831638
:1006F0008610831286108316061183120611831644
:100700008611831286112208AB00AB0AAB030319D2
:100710008D2BFF30AC000420862B2108AC00042078
:1007200083168611831286152208AB00AB0AAB0331
:1007300003199E2BFF30AC000420972B2108AC003E
:1007400004208316861183128611831606118312E4
:1007500006152208AB00AB0AAB030319B32BFF301D
:10076000AC000420AC2B2108AC0004208316061139
:100770008312061183168610831286142208AB009A
:10078000AB0AAB030319C82BFF30AC000420C12B0C
:100790002108AC000420831686108312861083166D
:1007A0000610831206142208AB00AB0AAB03031930
:1007B000DD2BFF30AC000420D62B2108AC00042038
:0C07C00083160610831206103228630016
:02400E00393F38
:00000001FF
;PIC16F877A
;CRC=42D1  CREATED="22-mai-18 15:33"
