:1000000000308A001928000028308400831300087B
:10001000031918280130F800F701F70B0D28F80B29
:100020000C284A30F700F70B13281628800B0A28F3
:100030000800840183131F30830583161F149F1447
:100040001F159F1107309C00FF308312A000FF3066
:10005000831687008312A000831681130730831252
:10006000A200D030A100201420088316870083123C
:10007000A3010718A30A0030A014200883168700E4
:100080008312A5018718A50A0030A308031D67285D
:10009000A408031D6728A508031D6728A608031DDB
:1000A000672883160610831206142208A700A70AE1
:1000B000A70303195F28FF30A8000420582821084F
:1000C000A80004208316061083120610682833281F
:1000D00020142008831687008312A3010718A30A9F
:1000E0000030A0142008831687008312A50187180A
:1000F000A50A0030230B8528A408031D8528250B9D
:0E0100008528A608031D85283328682863007B
:02400E00393F38
:00000001FF
;PIC16F877A
;CRC=8E7E  CREATED="07-jun-18 15:38"
