:1000000000308A001928000024308400831300087F
:10001000031918280130F800F701F70B0D28F80B29
:100020000C284A30F700F70B13281628800B0A28F3
:10003000080003081F39830083161F149F141F151F
:100040009F1107309C00831381138312A201643037
:10005000A1008316061083120610831686108312E1
:1000600086108316061183120611831686118312D9
:1000700086112208A300A30AA30303194328FF3013
:10008000A40004203C282108A40004208316861123
:10009000831286152208A300A30AA3030319542878
:1000A000FF30A40004204D282108A400042083165A
:1000B00086118312861183160611831206152208F3
:1000C000A300A30AA30303196928FF30A400042096
:1000D00062282108A4000420831606118312061149
:1000E00083168610831286142208A300A30AA30392
:1000F00003197E28FF30A400042077282108A400DB
:10010000042083168610831286108316061083122D
:1001100006142208A300A30AA30303199328FF309F
:10012000A40004208C282108A400042083160610B3
:08013000831206102928630068
:02400E00393F38
:00000001FF
;PIC16F877A
;CRC=964F  CREATED="24-abr-18 15:44"
