:1000000000308A001B2800002308F8012202031890
:100010000C282208F7001828F7010830A400A20DC8
:10002000F70D230877020318F700F80DA40B0F282B
:100030008A110A123D2803081F39830083161F14F2
:100040009F141F159F1107309C0083138312A10179
:1000500083168610023083128606831608148312D4
:1000600008182D28A10A831608148312081C3328A7
:100070002108A2000A30A3000428F7080319442825
:1000800021080A3C031D49288316061001308312FB
:060090008606282863002B
:02400E00313F40
:00000001FF
;PIC16F877A
;CRC=2AE0  CREATED="03-jul-18 02:47"
