:1000000000308A001B28000022308400831300087F
:10001000031918280130F800F701F70B0D28F80B29
:100020000C284A30F700F70B13281628800B0A28F3
:100030008A110A12512803081F39830083161F14DE
:100040009F141F159F1107309C0083130611831204
:100050000615831608148312081857288316881467
:100060008312881C402883160610831206148316F8
:1000700086108312861483160611831206112E2809
:1000800083160610831206108316861083128610BC
:1000900083168611831286152830A100FA30A2003B
:1000A0000428A10B4E28831686118312861183160D
:0400B000262863009B
:02400E00313F40
:00000001FF
;PIC16F877A
;CRC=8564  CREATED="06-mai-18 16:51"
