:1000000000308A001928000025308400831300087E
:10001000031918280130F800F701F70B0D28F80B29
:100020000C284A30F700F70B13281628800B0A28F3
:10003000080003081F39830083161F149F141F151F
:100040009F1107309C00831381138312A201643037
:10005000A1008316061683122310061A23142318F0
:10006000A3288316061083120610831686108312A7
:1000700086108316061183120611831686118312C9
:1000800086112208A400A40AA40303194B28FF30F8
:10009000A500042044282108A50004208316861109
:1000A000831286152208A400A40AA40303195C285D
:1000B000FF30A500042055282108A5000420831640
:1000C00086118312861183160611831206152208E3
:1000D000A400A40AA40303197128FF30A50004207A
:1000E0006A282108A5000420831606118312061130
:1000F00083168610831286142208A400A40AA4037F
:1001000003198628FF30A50004207F282108A500B8
:10011000042083168610831286108316061083121D
:1001200006142208A400A40AA40303199B28FF3084
:10013000A500042094282108A50004208316061099
:100140008312061004292208A400A40AA403031998
:10015000AD28FF30A5000420A6282108A500042012
:1001600083160610831206142208A400A40AA4030E
:100170000319BE28FF30A5000420B7282108A500D8
:10018000042083160610831206108316861083122D
:1001900086142208A400A40AA4030319D328FF305C
:1001A000A5000420CC282108A50004208316861071
:1001B0008312861083160611831206152208A400E6
:1001C000A40AA4030319E828FF30A5000420E128AD
:1001D0002108A50004208316061183120611831638
:1001E0008611831286152208A400A40AA403031909
:1001F000FD28FF30A5000420F6282108A5000420D2
:0C020000831686118312861129286300E2
:02400E00393F38
:00000001FF
;PIC16F877A
;CRC=74F2  CREATED="26-abr-18 16:00"
